:100000000C941D010C94A4060C947D060C945606C9
:100010000C942F060C9445010C9445010C94080691
:100020000C9445010C94DD070C948E0A0C94000B83
:100030000C9445010C9445010C9445010C94450128
:100040000C9445010C9445010C9445010C94450118
:100050000C9447080C9445010C9445010C94BE0582
:100060000C9445010C9445010C9445010C944501F8
:100070000C9445010C9445010C9445010C944501E8
:100080000C9445010C9445010C9445010C944501D8
:100090000C9445010C9445010C9445010C944501C8
:1000A0000C9445010C9445010C944501000000009E
:1000B0002300260029002C002F0000000000000073
:1000C00000002A2B280000000000000000000000B3
:1000D000000000000000000000002C9EB4A0A1A2BF
:1000E000A434A6A7A5AE362D3738271E1F202122FF
:1000F00023242526B333B62EB7B89F8485868788F8
:10010000898A8B8C8D8E8F909192939495969798E7
:10011000999A9B9C9D2F3130A3AD350405060708A5
:10012000090A0B0C0D0E0F101112131415161718C7
:10013000191A1B1C1DAFB1B0B500080B000202025A
:100140000100090400000102020000052400100162
:100150000524010101042402060524060001070507
:10016000810310004009040100020A000000070595
:100170000202400000070583024000000403090456
:1001800012010002EF0201404F1B06920001010222
:100190000301537061726B46756E00537061726B30
:1001A00046756E2050726F204D6963726F000000BB
:1001B0000000250028002B002E0031000000000068
:1001C000240027002A002D00300004040404040346
:1001D00004050202020204030202020206060606E7
:1001E000060604040202020404040802011040800E
:1001F000401020408040800802040180402010020E
:10020000011080102040402005010906A10185024F
:10021000050719E029E715002501750195088102F8
:100220009501750881039506750815002573050766
:10023000190029738100C000300D11241FBECFEFBB
:10024000DAE0DEBFCDBF11E0A0E0B1E0E6EFFEE115
:1002500002C005900D92A835B107D9F722E0A8E5B4
:10026000B1E001C01D92A033B207E1F711E0CDE18A
:10027000D1E004C02197FE010E946E0FCC31D1075E
:10028000C9F70E949A0D0C94790F0C9400004091CC
:100290009C0150919D0120919A0130919B01421740
:1002A0005307B4F49091E8009570E1F39091E80061
:1002B00092FD19C08093F10080919C0190919D0165
:1002C00001968F739927892B19F48EEF8093E8009C
:1002D00080919C0190919D01019690939D01809346
:1002E0009C0181E0089580E00895CF92DF92EF9223
:1002F000FF920F931F93CF93DF936C017A018B01D1
:10030000C0E0D0E0CE15DF0589F0D8016D918D01F8
:10031000D601ED91FC910190F081E02DC601099587
:10032000892B11F47E0102C02196ECCFC701DF9129
:10033000CF911F910F91FF90EF90DF90CF90089594
:100340002FB7F894609186017091870180918801A0
:10035000909189012FBF08950895DC01FB01129649
:100360008C91129790E02481358182179307D1F404
:1003700091818081813A31F481E0913091F0933024
:1003800089F411C0813271F49B3021F482811F966F
:100390008C9305C09A3031F4828150968C9381E021
:1003A0000895089580E00895DC01FB0188E48083CE
:1003B00089E4818384E482831D969C911D979F70BC
:1003C0009F5B93831D968D919C911E9724E096953B
:1003D00087952A95E1F78F708F5B848385E0089578
:1003E000FC0182818F5BFB01808381E00895CF92C5
:1003F000DF92EF92FF920F931F93CF93DF936C01E5
:10040000EB017B01E40EF51E00E010E0CE15DF05E8
:1004100081F069916D30D1F3D601ED91FC9101909D
:10042000F081E02DC6010995892B19F00F5F1F4F50
:10043000EDCFC801DF91CF911F910F91FF90EF9009
:10044000DF90CF900895089580E090E0089508959A
:1004500010926F0081E08093690182E090E09093B8
:10046000A7018093A601089510926F0081E090E0AB
:100470009093A7018093A6010895CF92DF92EF9207
:10048000FF920F931F938091A50185FD04C0809179
:10049000A40185FF8BC08091A00185FD53C0C09051
:1004A0006501D0906601E0906701F09068010E94BC
:1004B000A0016C157D058E059F05A8F40E94A00182
:1004C00000916501109166012091670130916801EA
:1004D0000095109520953095DC01CB01800F911F80
:1004E000A21FB31F10C00E94A001009165011091CE
:1004F00066012091670130916801DC01CB01801B0E
:10050000910BA20BB30B8A3F9105A105B10538F4FD
:1005100083E090E09093A7018093A60147C085E017
:100520008093A3018FEF9FEF9093A2018093A1018D
:10053000909387008093860085E18093810088E214
:1005400092E022C080916901811130C00E94A00117
:1005500060936501709366018093670190936801D1
:1005600010926F0085E08093A3018FEF9FEF90932F
:10057000A2018093A101909387008093860085E17A
:100580008093810084E392E090936B0180936A01F1
:1005900081E080936F00109281001092850010928C
:1005A00084008091A3018061809381001F910F914D
:1005B000FF90EF90DF90CF90089510926F0081E050
:1005C0008093640182E090E09093A9018093A80158
:1005D000089510926F0081E090E09093A9018093BC
:1005E000A8010895CF92DF92EF92FF920F931F938D
:1005F0008091A50184FD04C08091A40184FF8BC07B
:100600008091A00184FD53C0C0906001D090610131
:10061000E0906201F09063010E94A0016C157D05DD
:100620008E059F05A8F40E94A00100916001109121
:100630006101209162013091630100951095209530
:100640003095DC01CB01800F911FA21FB31F10C09A
:100650000E94A0010091600110916101209162014E
:1006600030916301DC01CB01801B910BA20BB30B1A
:100670008A3F9105A105B10538F483E090E090939D
:10068000A9018093A80147C085E08093A3018FEF63
:100690009FEF9093A2018093A10190938700809394
:1006A000860085E1809381008DED92E022C08091EB
:1006B0006401811130C00E94A001609360017093B9
:1006C0006101809362019093630110926F0085E055
:1006D0008093A3018FEF9FEF9093A2018093A101DC
:1006E000909387008093860085E18093810089EE56
:1006F00092E090936B0180936A0181E080936F0098
:100700001092810010928500109284008091A301C4
:100710008061809381001F910F91FF90EF90DF9097
:10072000CF9008958130E1F148F18230A9F0833013
:1007300009F049C0709359016093580182EC98E028
:1007400090930D0180930C01809169008C7F8160F2
:1007500080936900E89A35C070935B0160935A01F9
:100760008CEB98E090930F0180930E0180916900CB
:10077000837F846080936900E99A23C070935D0150
:1007800060935C0186EB98E09093110180931001D7
:10079000809169008F7C806180936900EA9A11C022
:1007A00070935F0160935E0180EB98E0909313017A
:1007B00080931201809169008F7380648093690037
:1007C000EB9A81E0089580E00895CF92DF92EF9256
:1007D000FF920F931F93CF93DF931F92CDB7DEB796
:1007E000182F062FE42E862F880F8E5F99830E9484
:1007F000470183E00E944701F12EC12E9981D92E35
:100800008C2D8F19801798F4F601E7FE02C08491B1
:1008100001C080810E944701182F80E00E9447019B
:100820008123FFEFCF1ADF0A8111EACF01C081E0F7
:100830000F90DF91CF911F910F91FF90EF90DF907C
:10084000CF900895DF92EF92FF920F931F93CF9373
:10085000DF93D82E8A017B01E40EF51EEB01CE1545
:10086000DF0571F0D7FE03C0FE01849101C08881CD
:100870000E94470121968111F2CF8FEF9FEF01C0B7
:10088000C801DF91CF911F910F91FF90EF90DF9002
:100890000895EF92FF920F931F93CF93DF93FB0185
:1008A0002081213851F52381223239F5DC0112965D
:1008B0002C9130E04481558142175307F1F4EC014B
:1008C0000B851C85E12CF12C0115110591F0F80127
:1008D000448155816281738180E80E9422048F3FA8
:1008E000FFEF9F0769F0E80EF91ED8010D911C91EA
:1008F000EBCF81E08F87C70105C080E090E002C0A8
:100900008FEF9FEFDF91CF911F910F91FF90EF90AD
:100910000895CF93DF93CDB7DEB769970FB6F894FC
:10092000DEBF0FBECDBFFC01DB018C918F5F8C93CE
:10093000BE016F5F7F4F89E1DB011D928A95E9F768
:1009400029E0298384E08A8391E09D8383E08E837C
:100950002A8721E22B879C879D879F8722E2288B0D
:1009600027E02B8B25E02C8B8E8B20E430E0388F1A
:100970002F8B998F82818B8395858685998B8A8B26
:10098000838180688D8B49E150E080E00E942204E1
:1009900069960FB6F894DEBF0FBECDBFDF91CF9141
:1009A00008952FB7F89487708093E9009091E8003C
:1009B000892F807295FF04C09091F20080E4891B1A
:1009C0002FBF08957F928F929F92AF92BF92CF9246
:1009D000DF92EF92FF920F931F93CF93DF93C82E76
:1009E0008B017A018091AB01811103C08FEF9FEFE2
:1009F00071C080919F0180FF05C08091E0008260FE
:100A00008093E000CE2DDF2DD12C8AEF882E8C2D07
:100A10008770B82E8C2D8072A82E8C2D8074982E05
:100A20009AE3792E209709F44EC08C2D0E94D104B0
:100A3000282F811106C08A948820C1F20E94430A9F
:100A4000F1CF90E0C817D9070CF42C2F3FB7F894DA
:100A5000B092E9008091E80085FF33C0822F90E0DA
:100A6000C81BD90BAA2029F02150A8F01092F10040
:100A7000FBCFF801C7FE07C0215058F044914093C6
:100A8000F1003196F9CF215020F041914093F100CF
:100A9000FACF080F191FDD2019F07092E8000AC084
:100AA0008091E80085FD08C07092E800DD24D394B1
:100AB000209739F0D12C05C0209719F4911070922D
:100AC000E8003FBFAFCFD110B0CF5D9884E68093F0
:100AD0009E01C701DF91CF911F910F91FF90EF9081
:100AE000DF90CF90BF90AF909F908F907F900895B0
:100AF000615030F02091F100FC0120830196F8CF85
:100B0000289884E68093AA0108958091920181112A
:100B10000DC082E080938E0184E080938F0110925B
:100B200091011092900181E0809392018EE891E012
:100B300008953FB7F89480918A0190918B01A0911C
:100B40008C01B0918D0126B5A89B05C02F3F19F0EF
:100B50000196A11DB11D3FBFBA2FA92F982F88273D
:100B6000820F911DA11DB11DBC01CD0142E0660F98
:100B7000771F881F991F4A95D1F708951F920F92EA
:100B80000FB60F9211242F933F938F939F93AF93A0
:100B9000BF938091860190918701A0918801B091C7
:100BA00089013091850123E0230F2D3720F4019630
:100BB000A11DB11D05C026E8230F0296A11DB11D80
:100BC000209385018093860190938701A0938801EB
:100BD000B093890180918A0190918B01A0918C0141
:100BE000B0918D010196A11DB11D80938A01909352
:100BF0008B01A0938C01B0938D01BF91AF919F9118
:100C00008F913F912F910F900FBE0F901F901895CD
:100C10001F920F920FB60F9211242F933F934F9371
:100C20005F936F937F938F939F93AF93BF93EF9354
:100C3000FF93E0911401F09115010995FF91EF9157
:100C4000BF91AF919F918F917F916F915F914F91E4
:100C50003F912F910F900FBE0F901F9018951F92EC
:100C60000F920FB60F9211242F933F934F935F93E0
:100C70006F937F938F939F93AF93BF93EF93FF9364
:100C8000E0911201F09113010995FF91EF91BF914D
:100C9000AF919F918F917F916F915F914F913F9114
:100CA0002F910F900FBE0F901F9018951F920F92CB
:100CB0000FB60F9211242F933F934F935F936F932F
:100CC0007F938F939F93AF93BF93EF93FF93E091A5
:100CD0001001F09111010995FF91EF91BF91AF9132
:100CE0009F918F917F916F915F914F913F912F9144
:100CF0000F900FBE0F901F9018951F920F920FB676
:100D00000F9211242F933F934F935F936F937F9391
:100D10008F939F93AF93BF93EF93FF93E0910E0157
:100D2000F0910F010995FF91EF91BF91AF919F91C4
:100D30008F917F916F915F914F913F912F910F9084
:100D40000FBE0F901F9018951F920F920FB60F9223
:100D500011242F933F934F935F936F937F938F93C0
:100D60009F93AF93BF93EF93FF93E0910C01F091AA
:100D70000D010995FF91EF91BF91AF919F918F91D7
:100D80007F916F915F914F913F912F910F900FBE87
:100D90000F901F90189580917D0181116BC081E0AB
:100DA000809370018093710126E731E030937301E5
:100DB00020937201109275011092740121E331E0C9
:100DC00030936D0120936C0110927801109277019D
:100DD00010927A011092790180937B0180937C01BB
:100DE00081EC809376010E948505FC012181809130
:100DF000700190E0820F911D089724F081E08093AC
:100E00007D0138C0A281B381109729F48CE691E06E
:100E1000938382830EC018968D919C9119970097A9
:100E200011F0DC01F8CF8CE691E019969C938E933B
:100E30001897808180936E01818180936F019081EA
:100E400080917101890F808380E0909170018917F2
:100E5000A8F6A0917201B0917301A80FB11D9C91E9
:100E6000A181B0E0AA5EBE4F9C9391819F5F918368
:100E70008F5FEBCF8CE691E00895EF92FF921F9386
:100E8000CF93DF93EC01162F683818F0E8E7E60FF0
:100E900023C0E62FF0E067FF0DC0E058F10981E0C4
:100EA00090E001C0880FEA95EAF79C81892B8C833A
:100EB000E0E012C0E654FF4FE491E11107C081E089
:100EC00090E09B838A83E12CF12C3FC0E7FF04C0B4
:100ED0008C8182608C83EF778E818E1739F18F81C0
:100EE0008E1721F188858E1709F189858E17F1F00B
:100EF0008A858E17D9F08B858E17C1F0DE01169684
:100F000080E090E02D91211106C0DE01A80FB91FED
:100F10001696EC930BC001968630910599F781E007
:100F200090E09B838A83E12CF12C0AC00E94CB06BF
:100F3000BE016C5F7F4F0E945D0AEE24E394F12CAA
:100F4000183818F0E8E7E10F1DC0E12FF0E017FFB7
:100F50000EC0E058F10921E030E001C0220FEA950F
:100F6000EAF720958C8128232C83E0E00BC0E6541F
:100F7000FF4FE491EE23D1F0E7FF04C08C818D7F19
:100F80008C83EF77DE01169686E0EE2321F09C91AC
:100F90009E1301C01C92815011968111F6CF0E94C0
:100FA000CB06BE016C5F7F4F0E945D0AC701DF91D7
:100FB000CF911F91FF90EF9008951F920F920FB65F
:100FC0000F9211242F933F934F935F936F937F93CF
:100FD0008F939F93AF93BF93CF93EF93FF9323B1DF
:100FE0008091A001C091A401C8239091A5019223F2
:100FF000C92B8227C8232093A001C4FF05C0E0911C
:101000002301F09124010995C5FF05C0E09121015C
:10101000F09122010995C6FF05C0E0910001F09111
:1010200001010995C7FF05C0E0910201F09103019C
:101030000995C0FF05C0E0910401F09105010995F3
:10104000C1FF05C0E0910601F09107010995C2FFBB
:1010500005C0E0910801F09109010995C3FF05C0A1
:10106000E0910A01F0910B010995FF91EF91CF9169
:10107000BF91AF919F918F917F916F915F914F91B0
:101080003F912F910F900FBE0F901F9018951F92B8
:101090000F920FB60F9211242F933F934F935F93AC
:1010A0006F937F938F939F93AF93BF93EF93FF9330
:1010B000E0916A01F0916B010995FF91EF91BF9169
:1010C000AF919F918F917F916F915F914F913F91E0
:1010D0002F910F900FBE0F901F901895DC01ED918E
:1010E000FD918081ED91FD919081ED91FD916C914B
:1010F00063708E2309F064609F2309F06860EBE859
:10110000F8E0E60FF11D659565956D936D917D9104
:101110008D919D91099423C01AC012C016C010C0B1
:101120001EC009C014C013C006C019C009C00DC03C
:1011300007C00DC014C062507040804090400BC08A
:10114000615070408040904006C06E5F01C06F5F8C
:101150007F4F8F4F9F4F9E938E937E936E930895F4
:1011600080915E0190915F010C946E0880915C010A
:1011700090915D010C946E0880915A0190915B01F1
:101180000C946E0880915801909159010C946E084E
:101190000F931F93CF93DF93EC01062F142F862F0D
:1011A0000E941B0A812F0E941B0A802F90E0FC01E5
:1011B000E653FE4FE491F0E0EE0FFF1FE455FF4FC2
:1011C000A591B491B983A883FC01E751FE4F8491A6
:1011D0008C83212F30E0F901E653FE4F9491E92FE3
:1011E000F0E0EE0FFF1FE455FF4F459154915B83F4
:1011F0004A83F901E751FE4FE491ED831F8218867F
:1012000019861A86EBE3FFE13197F1F7EC91E823B9
:1012100081E009F480E0FA0120819D81922309F0A8
:1012200082608E83BE01802F0E9492038B87BE0155
:10123000812F0E9492032B8590E0820F911D8B8756
:10124000DF91CF911F910F910895FC018091AB0127
:10125000811103C08FEF9FEF08959FB7F89482E04C
:101260008093E9002091F20030E01216130614F486
:1012700021E030E02115310559F0289884E680936B
:10128000AA018091F10080838091F200882319F0F7
:101290009FBFC90108958BE68093E800F9CFCF93F3
:1012A000DF931F92CDB7DEB76983DC01ED91FC912E
:1012B0000280F381E02D41E050E0BE016F5F7F4F7F
:1012C00009950F90DF91CF91089583E08093E90015
:1012D0008091F200882319F08AE38093E800089552
:1012E000CF93DF931F92CDB7DEB7FC018485958540
:1012F00097FD05C02FEF3FEF358724870BC0CE0148
:1013000001960E942509019719F4898190E002C095
:101310008FEF9FEF0F90DF91CF9108950F931F9361
:10132000CF93DF931F92CDB7DEB78C01FC0184858C
:10133000958597FF0EC0CE0101960E942509019761
:1013400019F4298130E002C02FEF3FEFF801358713
:101350002487F801848595850F90DF91CF911F91A7
:101360000F910895FC018485958597FD0BC09FB76B
:10137000F89482E08093E9008091F2009FBF90E0B2
:10138000019608959FB7F89482E08093E9008091D8
:10139000F2009FBF90E00895CF93DF93EC0180911E
:1013A0002C01882331F083E00E94E204181619060C
:1013B00034F081E090E09B838A8380E090E0DF91CD
:1013C000CF91089583E00E94D10490E008950E9497
:1013D000740F0F931F93CF93DF931F92CDB7DEB798
:1013E00082E0898342E450E06AE371E080E80E9491
:1013F00022040E948505DC0112960D911C91139721
:101400000115110569F0D801ED91FC910280F3817D
:10141000E02DBE016F5F7F4FC801099597FF07C0A0
:1014200089810F90DF91CF911F910F910895F8015D
:1014300000851185E5CFCF93DF9390E0FC01E75164
:10144000FE4F2491FC01E653FE4F84918823C1F0A6
:1014500090E0880F991FFC01E454FE4FC591D49190
:10146000FC01E255FE4FA591B4919FB7F8943881E5
:10147000822F809583238883EC91E22BEC939FBF8E
:10148000DF91CF910895CF92DF92EF92FF920E9469
:1014900099056B017C010E949905DC01CB018C1937
:1014A0009D09AE09BF09883E9340A105B10598F397
:1014B000FF90EF90DF90CF900895CF92DF92EF9260
:1014C000FF920F931F93CF93DF931F92CDB7DEB799
:1014D0007C016B0182E0898341E050E0BE016F5FD7
:1014E0007F4FF70183810E94E2048C0197FD0CC0BD
:1014F000F701838148E050E0B60180640E94E20475
:1015000097FD02C0800F911F0F90DF91CF911F9127
:101510000F91FF90EF90DF90CF9008951F920F9260
:101520000FB60F9211248F939F938091E1009091B9
:10153000E100937F9093E10083FF0FC01092E900D8
:1015400091E09093EB001092EC0092E39093ED0009
:101550001092AB0198E09093F00082FF20C093E0DE
:101560009093E9009091F200992319F09AE39093F7
:10157000E80090919E01992339F090919E0191503D
:1015800090939E01992389F19091AA01992339F0B2
:101590009091AA0191509093AA01992341F184FF5F
:1015A00010C08091E2008E7E81608093E200809185
:1015B000E1008F7E8093E10080919F018E7E8061AB
:1015C00011C080FF16C08091E2008E7E8061809302
:1015D000E2008091E1008E7E8093E10080919F0186
:1015E0008E7E816080939F0104C05D9ACDCF289A42
:1015F000D6CF9F918F910F900FBE0F901F9018958F
:101600001F920F920FB60F921124CF92DF92EF929A
:10161000FF920F931F932F933F934F935F936F937B
:101620007F938F939F93AF93BF93EF93FF93CF934A
:10163000DF93CDB7DEB76C97DEBFCDBF1092E90068
:101640008091E80083FFEDC168E0CE0145960E94DD
:10165000780582EF8093E8008D8987FF05C090911F
:10166000E80090FFFCCF03C09EEF9093E800982F16
:10167000907609F0C6C09E892F89188D91110CC0F3
:10168000803829F48091AD018093F10002C010925E
:10169000F1001092F10048C1422F50E0512B9130DF
:1016A00051F4811141C14130510509F03DC1809192
:1016B000AD018D7F0BC0933061F4811135C1413094
:1016C000510509F031C18091AD0182608093AD0177
:1016D0002BC1953041F48091E80080FFFCCF206859
:1016E0002093E30021C1963009F05FC0EB8CFC8CA5
:1016F0001092E90010929D0110929C01123091F518
:1017000010929B0110929A010E94E90999E0BE0192
:101710006F5F7F4FDB01E92F1D92EA95E9F799830F
:101720001A8391E09E8390EA98879AEF9987209197
:101730009C0130919D01275F3F4F3C832B838D831C
:101740001092E90010929D0110929C01F0929B0171
:10175000E0929A0149E050E080E00E9422040E9459
:10176000E909E2C0F0929B01E0929A010E9485058E
:10177000DC011296ED90FC901397E114F10409F44A
:10178000C0C0D701ED91FC910480F581E02DBE0130
:101790006B5E7F4FC7010995009719F00CF0C4C02C
:1017A000C7C0F701E084F184E8CF973009F4C0C0E6
:1017B000983021F481E08093F100B6C0993009F0AF
:1017C000B3C0837009F0B4C0E7E1F1E081E021E04B
:1017D00036E39081992361F08093E9002093EB0038
:1017E00091919093EC003093ED008F5F873089F7F3
:1017F0008EE78093EA001092EA008F898093AB0114
:1018000093C08B8D9C8D1092E90010929D011092D7
:101810009C0190939B0180939A01898D811156C000
:101820008E899D89913A59F4813209F081C047E04F
:1018300050E065E271E080E00E94220475C09132C0
:1018400009F076C0833289F4888D90E0982F88273C
:101850002F89822BA0E0B0E080931D0190931E01A0
:10186000A0931F01B09320015FC0803269F4809182
:10187000E80082FFFCCF67E085E291E00E947805F6
:101880008BEF8093E80006C0823209F04DC08F894B
:1018900080932C018091AC01882319F0EEEFFAE0DF
:1018A00002C0E0E0F8E08091250190912601A0912E
:1018B0002701B0912801803B9440A105B10509F0B2
:1018C0007BC080912C0180FF93C076C00E9485056B
:1018D000DC0112960D911C9113970115110541F130
:1018E000D801ED91FC910190F081E02DBE016B5E7D
:1018F0007F4FC8010995811117C0F8010085118536
:10190000ECCF113009F44EC0133091F48F89882345
:1019100009F445C0823081F440E862E18BE991E04E
:101920000E94E503882321F08EEF8093E80079C0C0
:1019300081E28093EB0075C0813029F440E868E0D3
:1019400082E991E0EDCF833099F70E948505DC01B3
:101950001296ED90FC9013978E010F5F1F4F680158
:10196000E114F10479F0D701ED91FC910680F78143
:10197000E02DB801C7010995080F111DF701E0849A
:10198000F184EECFD8011C92F60101900020E9F716
:101990003197BF016C197D0940E0C601C1CF6CE7EA
:1019A00071E002C060E871E06115710509F2FB01A8
:1019B000449150E080E840CF0FB6F894A89580910C
:1019C0006000886180936000109260000FBEA8954F
:1019D000EE3F2AE0F20739F08091FE0A9091FF0A6B
:1019E00091838083A1CF1092FF0A1092FE0A9CCFB0
:1019F000EE3F8AE0F80731F0808191819093FF0AF1
:101A00008093FE0A87E797E7918380839BE088E1D4
:101A10000FB6F894A895809360000FBE9093600075
:101A200083CF6C960FB6F894DEBF0FBECDBFDF91AB
:101A3000CF91FF91EF91BF91AF919F918F917F9146
:101A40006F915F914F913F912F911F910F91FF9057
:101A5000EF90DF90CF900F900FBE0F901F901895D2
:101A60001092B1011092B00188EE93E0A0E0B0E0D6
:101A70008093B2019093B301A093B401B093B501E8
:101A80008DE391E09093AF018093AE018FEF9FEFD4
:101A90009093BB018093BA0110920F0210920E0234
:101AA0008FE491E090930D0280930C0280910402E8
:101AB000811113C01092FF011092FE0188E092E0A4
:101AC00090930102809300028FE290E090930302D2
:101AD0008093020281E0809304020E94CB06FC0105
:101AE000A385B485109729F48EEF91E094878387BE
:101AF0000BC08D919C911197009711F0DC01F9CFEB
:101B00008EEF91E08D939C9325853685809102021E
:101B100090910302820F931F9687858741E060E0D2
:101B200084E292E00E94C80843E062E088E192E02B
:101B30000C94C808789484B5826084BD84B58160B3
:101B400084BD85B5826085BD85B5816085BD809188
:101B50006E00816080936E00109281008091810000
:101B600082608093810080918100816080938100F8
:101B700080918000816080938000809191008260DC
:101B80008093910080919100816080939100809179
:101B900090008160809390008091C1008460809368
:101BA000C1008091C10082608093C1008091C1001A
:101BB00081608093C1008091C30081608093C300E5
:101BC0008091C00082608093C0008091C2008160DB
:101BD0008093C20080917A00846080937A00809123
:101BE0007A00826080937A0080917A00816080938D
:101BF0007A0080917A00806880937A001092AB011D
:101C00001092AD0110929F018091D7008160809366
:101C1000D70080EA8093D80089B5806189BD89B5F5
:101C2000826089BD09B400FEFDCF0E94430A809105
:101C3000D8008F7C80618093D8008091E000807F05
:101C40008093E0008091E1008E7E8093E1008DE042
:101C50008093E200559A209AEEEFFFE785919491E8
:101C60008B3F9C4D19F481E08093AC0180E00E9491
:101C70001B0A81E00E941B0A88E00E941B0A82E086
:101C80000E941B0A83E00E941B0A89E00E941B0A33
:101C900082EF92E090932401809323018091A5012B
:101CA00080618093A5018091A40180618093A4014B
:101CB00083B18093A00180916B00806180936B0061
:101CC000809168008160809368008DE392E090933A
:101CD0002201809321018091A50180628093A5015A
:101CE0008091A40180628093A40183B18093A001BC
:101CF00080916B00806280936B00809168008160AE
:101D00008093680080E1809381001092800085E0DC
:101D10008093A3018FEF9FEF9093A2018093A10185
:101D2000909387008093860085E18093810000E096
:101D300010E080912F02823030F4F89484E292E037
:101D40000E946E0801C0F89480912B0290912C02A1
:101D5000A0912D02B0912E027894F89410922B024B
:101D600010922C0210922D0210922E0278941816C6
:101D700019069CF4EC01D595C795D595C795E12C2E
:101D8000F12CEC16FD0659F067ED8CE092E00E9414
:101D90003D078FEFE81AF80AF4CF009751F48091CD
:101DA00023028230F0F4F89488E192E00E946E08F9
:101DB00019C09C0197FF02C02D5F3F4FE901D595E7
:101DC000C795D595C795E12CF12CEC16FD0639F396
:101DD00068ED8CE092E00E943D0721E0E21AF108F4
:101DE000F4CFF89480911F0290912002A0912102DB
:101DF000B09122027894F89410921F02109220025F
:101E000010922102109222027894181619069CF45E
:101E1000EC01D595C795D595C795E12CF12CEC161D
:101E2000FD0659F06AED8CE092E00E943D078FEFCD
:101E3000E81AF80AF4CF009771F48091A801909104
:101E4000A90182309105F9F083309105F1F00197F5
:101E500009F562EC1BC09C0197FF02C02D5F3F4F4C
:101E6000E901D595C795D595C795E12CF12CEC16D0
:101E7000FD0619F369ED8CE092E00E943D0721E038
:101E8000E21AF108F4CF63EC01C064EC8CE092E05C
:101E90000E943D071092A9011092A8018091A6010D
:101EA0009091A7018230910539F08330910531F08E
:101EB000019749F465EC03C066EC01C067EC8CE067
:101EC00092E00E943D071092A7011092A601011511
:101ED000110509F42ECF0E9400002BCFEE0FFF1F3B
:101EE0000590F491E02D099481E090E0F8940C9431
:061EF000790FF894FFCF0A
:101EF600270227022702270227022702AC01AC018C
:101F0600AC01AC01AC0100C18081000000FFFFFF05
:101F1600FF2702270200E100000000000000000089
:101F260000AD0189044904D401000000004F09CC2A
:101F360009E2096509B20970098E09000000003D31
:081F460007F701240223020049
:00000001FF
