:100000000C941D010C94A4060C947D060C945606C9
:100010000C942F060C9445010C9445010C94080691
:100020000C9445010C94DD070C948E0A0C94000B83
:100030000C9445010C9445010C9445010C94450128
:100040000C9445010C9445010C9445010C94450118
:100050000C9447080C9445010C9445010C94BE0582
:100060000C9445010C9445010C9445010C944501F8
:100070000C9445010C9445010C9445010C944501E8
:100080000C9445010C9445010C9445010C944501D8
:100090000C9445010C9445010C9445010C944501C8
:1000A0000C9445010C9445010C944501000000009E
:1000B0002300260029002C002F0000000000000073
:1000C00000002A2B280000000000000000000000B3
:1000D000000000000000000000002C9EB4A0A1A2BF
:1000E000A434A6A7A5AE362D3738271E1F202122FF
:1000F00023242526B333B62EB7B89F8485868788F8
:10010000898A8B8C8D8E8F909192939495969798E7
:10011000999A9B9C9D2F3130A3AD350405060708A5
:10012000090A0B0C0D0E0F101112131415161718C7
:10013000191A1B1C1DAFB1B0B500080B000202025A
:100140000100090400000102020000052400100162
:100150000524010101042402060524060001070507
:10016000810310004009040100020A000000070595
:100170000202400000070583024000000403090456
:1001800012010002EF0201404F1B06920001010222
:100190000301537061726B46756E00537061726B30
:1001A00046756E2050726F204D6963726F000000BB
:1001B0000000250028002B002E0031000000000068
:1001C000240027002A002D00300004040404040346
:1001D00004050202020204030202020206060606E7
:1001E000060604040202020404040802011040800E
:1001F000401020408040800802040180402010020E
:10020000011080102040402005010906A10185024F
:10021000050719E029E715002501750195088102F8
:100220009501750881039506750815002573050766
:10023000190029738100C000300D11241FBECFEFBB
:10024000DAE0DEBFCDBF11E0A0E0B1E0E6EFFEE115
:1002500002C005900D92A835B107D9F722E0A8E5B4
:10026000B1E001C01D92A033B207E1F711E0CDE18A
:10027000D1E004C02197FE010E946E0FCC31D1075E
:10028000C9F70E949A0D0C94790F0C9400004091CC
:100290009C0150919D0120919A0130919B01421740
:1002A0005307B4F49091E8009570E1F39091E80061
:1002B00092FD19C08093F10080919C0190919D0165
:1002C00001968F739927892B19F48EEF8093E8009C
:1002D00080919C0190919D01019690939D01809346
:1002E0009C0181E0089580E00895CF92DF92EF9223
:1002F000FF920F931F93CF93DF936C017A018B01D1
:10030000C0E0D0E0CE15DF0589F0D8016D918D01F8
:10031000D601ED91FC910190F081E02DC601099587
:10032000892B11F47E0102C02196ECCFC701DF9129
:10033000CF911F910F91FF90EF90DF90CF90089594
:100340002FB7F894609186017091870180918801A0
:10035000909189012FBF08950895DC01FB01129649
:100360008C91129790E02481358182179307D1F404
:1003700091818081813A31F481E0913091F0933024
:1003800089F411C0813271F49B3021F482811F966F
:100390008C9305C09A3031F4828150968C9381E021
:1003A0000895089580E00895DC01FB0188E48083CE
:1003B00089E4818384E482831D969C911D979F70BC
:1003C0009F5B93831D968D919C911E9724E096953B
:1003D00087952A95E1F78F708F5B848385E0089578
:1003E000FC0182818F5BFB01808381E00895CF92C5
:1003F000DF92EF92FF920F931F93CF93DF936C01E5
:10040000EB017B01E40EF51E00E010E0CE15DF05E8
:1004100081F069916D30D1F3D601ED91FC9101909D
:10042000F081E02DC6010995892B19F00F5F1F4F50
:10043000EDCFC801DF91CF911F910F91FF90EF9009
:10044000DF90CF900895089580E090E0089508959A
:1004500010926F0081E08093690182E090E09093B8
:10046000A7018093A601089510926F0081E090E0AB
:100470009093A7018093A6010895CF92DF92EF9207
:10048000FF920F931F938091A50185FD04C0809179
:10049000A40185FF8BC08091A00185FD53C0C09051
:1004A0006501D0906601E0906701F09068010E94BC
:1004B000A0016C157D058E059F05A8F40E94A00182
:1004C00000916501109166012091670130916801EA
:1004D0000095109520953095DC01CB01800F911F80
:1004E000A21FB31F10C00E94A001009165011091CE
:1004F00066012091670130916801DC01CB01801B0E
:10050000910BA20BB30B8A3F9105A105B10538F4FD
:1005100083E090E09093A7018093A60147C085E017
:100520008093A3018FEF9FEF9093A2018093A1018D
:10053000909387008093860085E18093810088E214
:1005400092E022C080916901811130C00E94A00117
:1005500060936501709366018093670190936801D1
:1005600010926F0085E08093A3018FEF9FEF90932F
:10057000A2018093A101909387008093860085E17A
:100580008093810084E392E090936B0180936A01F1
:1005900081E080936F00109281001092850010928C
:1005A00084008091A3018061809381001F910F914D
:1005B000FF90EF90DF90CF90089510926F0081E050
:1005C0008093640182E090E09093A9018093A80158
:1005D000089510926F0081E090E09093A9018093BC
:1005E000A8010895CF92DF92EF92FF920F931F938D
:1005F0008091A50184FD04C08091A40184FF8BC07B
:100600008091A00184FD53C0C0906001D090610131
:10061000E0906201F09063010E94A0016C157D05DD
:100620008E059F05A8F40E94A00100916001109121
:100630006101209162013091630100951095209530
:100640003095DC01CB01800F911FA21FB31F10C09A
:100650000E94A0010091600110916101209162014E
:1006600030916301DC01CB01801B910BA20BB30B1A
:100670008A3F9105A105B10538F483E090E090939D
:10068000A9018093A80147C085E08093A3018FEF63
:100690009FEF9093A2018093A10190938700809394
:1006A000860085E1809381008DED92E022C08091EB
:1006B0006401811130C00E94A001609360017093B9
:1006C0006101809362019093630110926F0085E055
:1006D0008093A3018FEF9FEF9093A2018093A101DC
:1006E000909387008093860085E18093810089EE56
:1006F00092E090936B0180936A0181E080936F0098
:100700001092810010928500109284008091A301C4
:100710008061809381001F910F91FF90EF90DF9097
:10072000CF9008958130E1F148F18230A9F0833013
:1007300009F049C0709359016093580182EC98E028
:1007400090930D0180930C01809169008C7F8160F2
:1007500080936900E89A35C070935B0160935A01F9
:100760008CEB98E090930F0180930E0180916900CB
:10077000837F846080936900E99A23C070935D0150
:1007800060935C0186EB98E09093110180931001D7
:10079000809169008F7C806180936900EA9A11C022
:1007A00070935F0160935E0180EB98E0909313017A
:1007B00080931201809169008F7380648093690037
:1007C000EB9A81E0089580E00895CF92DF92EF9256
:1007D000FF920F931F93CF93DF931F92CDB7DEB796
:1007E000182F062FE42E862F880F8E5F99830E9484
:1007F000470183E00E944701F12EC12E9981D92E35
:100800008C2D8F19801798F4F601E7FE02C08491B1
:1008100001C080810E944701182F80E00E9447019B
:100820008123FFEFCF1ADF0A8111EACF01C081E0F7
:100830000F90DF91CF911F910F91FF90EF90DF907C
:10084000CF900895DF92EF92FF920F931F93CF9373
:10085000DF93D82E8A017B01E40EF51EEB01CE1545
:10086000DF0571F0D7FE03C0FE01849101C08881CD
:100870000E94470121968111F2CF8FEF9FEF01C0B7
:10088000C801DF91CF911F910F91FF90EF90DF9002
:100890000895EF92FF920F931F93CF93DF93FB0185
:1008A0002081213851F52381223239F5DC0112965D
:1008B0002C9130E04481558142175307F1F4EC014B
:1008C0000B851C85E12CF12C0115110591F0F80127
:1008D000448155816281738180E80E9422048F3FA8
:1008E000FFEF9F0769F0E80EF91ED8010D911C91EA
:1008F000EBCF81E08F87C70105C080E090E002C0A8
:100900008FEF9FEFDF91CF911F910F91FF90EF90AD
:100910000895CF93DF93CDB7DEB769970FB6F894FC
:10092000DEBF0FBECDBFFC01DB018C918F5F8C93CE
:10093000BE016F5F7F4F89E1DB011D928A95E9F768
:1009400029E0298384E08A8391E09D8383E08E837C
:100950002A8721E22B879C879D879F8722E2288B0D
:1009600027E02B8B25E02C8B8E8B20E430E0388F1A
:100970002F8B998F82818B8395858685998B8A8B26
:10098000838180688D8B49E150E080E00E942204E1
:1009900069960FB6F894DEBF0FBECDBFDF91CF9141
:1009A00008952FB7F89487708093E9009091E8003C
:1009B000892F807295FF04C09091F20080E4891B1A
:1009C0002FBF08957F928F929F92AF92BF92CF9246
:1009D000DF92EF92FF920F931F93CF93DF93C82E76
:1009E0008B017A018091AB01811103C08FEF9FEFE2
:1009F00071C080919F0180FF05C08091E0008260FE
:100A00008093E000CE2DDF2DD12C8AEF882E8C2D07
:100A10008770B82E8C2D8072A82E8C2D8074982E05
:100A20009AE3792E209709F44EC08C2D0E94D104B0
:100A3000282F811106C08A948820C1F20E94430A9F
:100A4000F1CF90E0C817D9070CF42C2F3FB7F894DA
:100A5000B092E9008091E80085FF33C0822F90E0DA
:100A6000C81BD90BAA2029F02150A8F01092F10040
:100A7000FBCFF801C7FE07C0215058F044914093C6
:100A8000F1003196F9CF215020F041914093F100CF
:100A9000FACF080F191FDD2019F07092E8000AC084
:100AA0008091E80085FD08C07092E800DD24D394B1
:100AB000209739F0D12C05C0209719F4911070922D
:100AC000E8003FBFAFCFD110B0CF5D9884E68093F0
:100AD0009E01C701DF91CF911F910F91FF90EF9081
:100AE000DF90CF90BF90AF909F908F907F900895B0
:100AF000615030F02091F100FC0120830196F8CF85
:100B0000289884E68093AA0108958091920181112A
:100B10000DC082E080938E0184E080938F0110925B
:100B200091011092900181E0809392018EE891E012
:100B300008953FB7F89480918A0190918B01A0911C
:100B40008C01B0918D0126B5A89B05C02F3F19F0EF
:100B50000196A11DB11D3FBFBA2FA92F982F88273D
:100B6000820F911DA11DB11DBC01CD0142E0660F98
:100B7000771F881F991F4A95D1F708951F920F92EA
:100B80000FB60F9211242F933F938F939F93AF93A0
:100B9000BF938091860190918701A0918801B091C7
:100BA00089013091850123E0230F2D3720F4019630
:100BB000A11DB11D05C026E8230F0296A11DB11D80
:100BC000209385018093860190938701A0938801EB
:100BD000B093890180918A0190918B01A0918C0141
:100BE000B0918D010196A11DB11D80938A01909352
:100BF0008B01A0938C01B0938D01BF91AF919F9118
:100C00008F913F912F910F900FBE0F901F901895CD
:100C10001F920F920FB60F9211242F933F934F9371
:100C20005F936F937F938F939F93AF93BF93EF9354
:100C3000FF93E0911401F09115010995FF91EF9157
:100C4000BF91AF919F918F917F916F915F914F91E4
:100C50003F912F910F900FBE0F901F9018951F92EC
:100C60000F920FB60F9211242F933F934F935F93E0
:100C70006F937F938F939F93AF93BF93EF93FF9364
:100C8000E0911201F09113010995FF91EF91BF914D
:100C9000AF919F918F917F916F915F914F913F9114
:100CA0002F910F900FBE0F901F9018951F920F92CB
:100CB0000FB60F9211242F933F934F935F936F932F
:100CC0007F938F939F93AF93BF93EF93FF93E091A5
:100CD0001001F09111010995FF91EF91BF91AF9132
:100CE0009F918F917F916F915F914F913F912F9144
:100CF0000F900FBE0F901F9018951F920F920FB676
:100D00000F9211242F933F934F935F936F937F9391
:100D10008F939F93AF93BF93EF93FF93E0910E0157
:100D2000F0910F010995FF91EF91BF91AF919F91C4
:100D30008F917F916F915F914F913F912F910F9084
:100D40000FBE0F901F9018951F920F920FB60F9223
:100D500011242F933F934F935F936F937F938F93C0
:100D60009F93AF93BF93EF93FF93E0910C01F091AA
:100D70000D010995FF91EF91BF91AF919F918F91D7
:100D80007F916F915F914F913F912F910F900FBE87
:100D90000F901F90189580917D0181116BC081E0AB
:100DA000809370018093710126E731E030937301E5
:100DB00020937201109275011092740121E331E0C9
:100DC00030936D0120936C0110927801109277019D
:100DD00010927A011092790180937B0180937C01BB
:100DE00081EC809376010E948505FC012181809130
:100DF000700190E0820F911D089724F081E08093AC
:100E00007D0138C0A281B381109729F48CE691E06E
:100E1000938382830EC018968D919C9119970097A9
:100E200011F0DC01F8CF8CE691E019969C938E933B
:100E30001897808180936E01818180936F019081EA
:100E400080917101890F808380E0909170018917F2
:100E5000A8F6A0917201B0917301A80FB11D9C91E9
:100E6000A181B0E0AA5EBE4F9C9391819F5F918368
:100E70008F5FEBCF8CE691E00895EF92FF921F9386
:100E8000CF93DF93EC01162F683818F0E8E7E60FF0
:100E900023C0E62FF0E067FF0DC0E058F10981E0C4
:100EA00090E001C0880FEA95EAF79C81892B8C833A
:100EB000E0E012C0E654FF4FE491E11107C081E089
:100EC00090E09B838A83E12CF12C3FC0E7FF04C0B4
:100ED0008C8182608C83EF778E818E1739F18F81C0
:100EE0008E1721F188858E1709F189858E17F1F00B
:100EF0008A858E17D9F08B858E17C1F0DE01169684
:100F000080E090E02D91211106C0DE01A80FB91FED
:100F10001696EC930BC001968630910599F781E007
:100F200090E09B838A83E12CF12C0AC00E94CB06BF
:100F3000BE016C5F7F4F0E945D0AEE24E394F12CAA
:100F4000183818F0E8E7E10F1DC0E12FF0E017FFB7
:100F50000EC0E058F10921E030E001C0220FEA950F
:100F6000EAF720958C8128232C83E0E00BC0E6541F
:100F7000FF4FE491EE23D1F0E7FF04C08C818D7F19
:100F80008C83EF77DE01169686E0EE2321F09C91AC
:100F90009E1301C01C92815011968111F6CF0E94C0
:100FA000CB06BE016C5F7F4F0E945D0AC701DF91D7
:100FB000CF911F91FF90EF9008951F920F920FB65F
:100FC0000F9211242F933F934F935F936F937F93CF
:100FD0008F939F93AF93BF93CF93EF93FF9323B1DF
:100FE0008091A001C091A401C8239091A5019223F2
:100FF000C92B8227C8232093A001C4FF05C0E0911C
:101000002301F09124010995C5FF05C0E09121015C
:10101000F09122010995C6FF05C0E0910001F09111
:1010200001010995C7FF05C0E0910201F09103019C
:101030000995C0FF05C0E0910401F09105010995F3
:10104000C1FF05C0E0910601F09107010995C2FFBB
:1010500005C0E0910801F09109010995C3FF05C0A1
:10106000E0910A01F0910B010995FF91EF91CF9169
:10107000BF91AF919F918F917F916F915F914F91B0
:101080003F912F910F900FBE0F901F9018951F92B8
:101090000F920FB60F9211242F933F934F935F93AC
:1010A0006F937F938F939F93AF93BF93EF93FF9330
:1010B000E0916A01F0916B010995FF91EF91BF9169
:1010C000AF919F918F917F916F915F914F913F91E0
:1010D0002F910F900FBE0F901F901895DC01ED918E
:1010E000FD918081ED91FD919081ED91FD916C914B
:1010F00063708E2309F064609F2309F06860EBE859
:10110000F8E0E60FF11D659565956D936D917D9104
:101110008D919D91099423C01AC012C016C010C0B1
:101120001EC009C014C013C006C019C009C00DC03C
:1011300007C00DC014C062507040804090400BC08A
:10114000615070408040904006C06E5F01C06F5F8C
:101150007F4F8F4F9F4F9E938E937E936E930895F4
:1011600080915E0190915F010C946E0880915C010A
:1011700090915D010C946E0880915A0190915B01F1
:101180000C946E0880915801909159010C946E084E
:101190000F931F93CF93DF93EC01062F142F862F0D
:1011A0000E941B0A812F0E941B0A802F90E0FC01E5
:1011B000E653FE4FE491F0E0EE0FFF1FE455FF4FC2
:1011C000A591B491B983A883FC01E751FE4F8491A6
:1011D0008C83212F30E0F901E653FE4F9491E92FE3
:1011E000F0E0EE0FFF1FE455FF4F459154915B83F4
:1011F0004A83F901E751FE4FE491ED831F8218867F
:1012000019861A86EBE3FFE13197F1F7EC91E823B9
:1012100081E009F480E0FA0120819D81922309F0A8
:1012200082608E83BE01802F0E9492038B87BE0155
:10123000812F0E9492032B8590E0820F911D8B8756
:10124000DF91CF911F910F910895FC018091AB0127
:10125000811103C08FEF9FEF08959FB7F89482E04C
:101260008093E9002091F20030E01216130614F486
:1012700021E030E02115310559F0289884E680936B
:10128000AA018091F10080838091F200882319F0F7
:101290009FBFC90108958BE68093E800F9CFCF93F3
:1012A000DF931F92CDB7DEB76983DC01ED91FC912E
:1012B0000280F381E02D41E050E0BE016F5F7F4F7F
:1012C00009950F90DF91CF91089583E08093E90015
:1012D0008091F200882319F08AE38093E800089552
:1012E000CF93DF931F92CDB7DEB7FC018485958540
:1012F00097FD05C02FEF3FEF358724870BC0CE0148
:1013000001960E942509019719F4898190E002C095
:101310008FEF9FEF0F90DF91CF9108950F931F9361
:10132000CF93DF931F92CDB7DEB78C01FC0184858C
:10133000958597FF0EC0CE0101960E942509019761
:1013400019F4298130E002C02FEF3FEFF801358713
:101350002487F801848595850F90DF91CF911F91A7
:101360000F910895FC018485958597FD0BC09FB76B
:10137000F89482E08093E9008091F2009FBF90E0B2
:10138000019608959FB7F89482E08093E9008091D8
:10139000F2009FBF90E00895CF93DF93EC0180911E
:1013A0002C01882331F083E00E94E204181619060C
:1013B00034F081E090E09B838A8380E090E0DF91CD
:1013C000CF91089583E00E94D10490E008950E9497
:1013D000740F0F931F93CF93DF931F92CDB7DEB798
:1013E00082E0898342E450E06AE371E080E80E9491
:1013F00022040E948505DC0112960D911C91139721
:101400000115110569F0D801ED91FC910280F3817D
:10141000E02DBE016F5F7F4FC801099597FF07C0A0
:1014200089810F90DF91CF911F910F910895F8015D
:1014300000851185E5CFCF93DF9390E0FC01E75164
:10144000FE4F2491FC01E653FE4F84918823C1F0A6
:1014500090E0880F991FFC01E454FE4FC591D49190
:10146000FC01E255FE4FA591B4919FB7F8943881E5
:10147000822F809583238883EC91E22BEC939FBF8E
:10148000DF91CF910895CF92DF92EF92FF920E9469
:1014900099056B017C010E949905DC01CB018C1937
:1014A0009D09AE09BF09883E9340A105B10598F397
:1014B000FF90EF90DF90CF900895CF92DF92EF9260
:1014C000FF920F931F93CF93DF931F92CDB7DEB799
:1014D0007C016B0182E0898341E050E0BE016F5FD7
:1014E0007F4FF70183810E94E2048C0197FD0CC0BD
:1014F000F701838148E050E0B60180640E94E20475
:1015000097FD02C0800F911F0F90DF91CF911F9127
:101510000F91FF90EF90DF90CF9008951F920F9260
:101520000FB60F9211248F939F938091E1009091B9
:10153000E100937F9093E10083FF0FC01092E900D8
:1015400091E09093EB001092EC0092E39093ED0009
:101550001092AB0198E09093F00082FF20C093E0DE
:101560009093E9009091F200992319F09AE39093F7
:10157000E80090919E01992339F090919E0191503D
:1015800090939E01992389F19091AA01992339F0B2
:101590009091AA0191509093AA01992341F184FF5F
:1015A00010C08091E2008E7E81608093E200809185
:1015B000E1008F7E8093E10080919F018E7E8061AB
:1015C00011C080FF16C08091E2008E7E8061809302
:1015D000E2008091E1008E7E8093E10080919F0186
:1015E0008E7E816080939F0104C05D9ACDCF289A42
:1015F000D6CF9F918F910F900FBE0F901F9018958F
:101600001F920F920FB60F921124CF92DF92EF929A
:10161000FF920F931F932F933F934F935F936F937B
:101620007F938F939F93AF93BF93EF93FF93CF934A
:10163000DF93CDB7DEB76C97DEBFCDBF1092E90068
:101640008091E80083FFEDC168E0CE0145960E94DD
:10165000780582EF8093E8008D8987FF05C090911F
:10166000E80090FFFCCF03C09EEF9093E800982F16
:10167000907609F0C6C09E892F89188D91110CC0F3
:10168000803829F48091AD018093F10002C010925E
:10169000F1001092F10048C1422F50E0512B9130DF
:1016A00051F4811141C14130510509F03DC1809192
:1016B000AD018D7F0BC0933061F4811135C1413094
:1016C000510509F031C18091AD0182608093AD0177
:1016D0002BC1953041F48091E80080FFFCCF206859
:1016E0002093E30021C1963009F05FC0EB8CFC8CA5
:1016F0001092E90010929D0110929C01123091F518
:1017000010929B0110929A010E94E90999E0BE0192
:101710006F5F7F4FDB01E92F1D92EA95E9F799830F
:101720001A8391E09E8390EA98879AEF9987209197
:101730009C0130919D01275F3F4F3C832B838D831C
:101740001092E90010929D0110929C01F0929B0171
:10175000E0929A0149E050E080E00E9422040E9459
:10176000E909E2C0F0929B01E0929A010E9485058E
:10177000DC011296ED90FC901397E114F10409F44A
:10178000C0C0D701ED91FC910480F581E02DBE0130
:101790006B5E7F4FC7010995009719F00CF0C4C02C
:1017A000C7C0F701E084F184E8CF973009F4C0C0E6
:1017B000983021F481E08093F100B6C0993009F0AF
:1017C000B3C0837009F0B4C0E7E1F1E081E021E04B
:1017D00036E39081992361F08093E9002093EB0038
:1017E00091919093EC003093ED008F5F873089F7F3
:1017F0008EE78093EA001092EA008F898093AB0114
:1018000093C08B8D9C8D1092E90010929D011092D7
:101810009C0190939B0180939A01898D811156C000
:101820008E899D89913A59F4813209F081C047E04F
:1018300050E065E271E080E00E94220475C09132C0
:1018400009F076C0833289F4888D90E0982F88273C
:101850002F89822BA0E0B0E080931D0190931E01A0
:10186000A0931F01B09320015FC0803269F4809182
:10187000E80082FFFCCF67E085E291E00E947805F6
:101880008BEF8093E80006C0823209F04DC08F894B
:1018900080932C018091AC01882319F0EEEFFAE0DF
:1018A00002C0E0E0F8E08091250190912601A0912E
:1018B0002701B0912801803B9440A105B10509F0B2
:1018C0007BC080912C0180FF93C076C00E9485056B
:1018D000DC0112960D911C9113970115110541F130
:1018E000D801ED91FC910190F081E02DBE016B5E7D
:1018F0007F4FC8010995811117C0F8010085118536
:10190000ECCF113009F44EC0133091F48F89882345
:1019100009F445C0823081F440E862E18BE991E04E
:101920000E94E503882321F08EEF8093E80079C0C0
:1019300081E28093EB0075C0813029F440E868E0D3
:1019400082E991E0EDCF833099F70E948505DC01B3
:101950001296ED90FC9013978E010F5F1F4F680158
:10196000E114F10479F0D701ED91FC910680F78143
:10197000E02DB801C7010995080F111DF701E0849A
:10198000F184EECFD8011C92F60101900020E9F716
:101990003197BF016C197D0940E0C601C1CF6CE7EA
:1019A00071E002C060E871E06115710509F2FB01A8
:1019B000449150E080E840CF0FB6F894A89580910C
:1019C0006000886180936000109260000FBEA8954F
:1019D000EE3F2AE0F20739F08091FE0A9091FF0A6B
:1019E00091838083A1CF1092FF0A1092FE0A9CCFB0
:1019F000EE3F8AE0F80731F0808191819093FF0AF1
:101A00008093FE0A87E797E7918380839BE088E1D4
:101A10000FB6F894A895809360000FBE9093600075
:101A200083CF6C960FB6F894DEBF0FBECDBFDF91AB
:101A3000CF91FF91EF91BF91AF919F918F917F9146
:101A40006F915F914F913F912F911F910F91FF9057
:101A5000EF90DF90CF900F900FBE0F901F901895D2
:101A60001092B1011092B00188EE93E0A0E0B0E0D6
:101A70008093B2019093B301A093B401B093B501E8
:101A80008DE391E09093AF018093AE018FEF9FEFD4
:101A90009093BB018093BA0110920F0210920E0234
:101AA0008FE491E090930D0280930C0280910402E8
:101AB000811113C01092FF011092FE0188E092E0A4
:101AC00090930102809300028FE290E090930302D2
:101AD0008093020281E0809304020E94CB06FC0105
:101AE000A385B485109729F48EEF91E094878387BE
:101AF0000BC08D919C911197009711F0DC01F9CFEB
:101B00008EEF91E08D939C9325853685809102021E
:101B100090910302820F931F9687858741E060E0D2
:101B200084E292E00E94C80843E062E088E192E02B
:101B30000C94C808789484B5826084BD84B58160B3
:101B400084BD85B5826085BD85B5816085BD809188
:101B50006E00816080936E00109281008091810000
:101B600082608093810080918100816080938100F8
:101B700080918000816080938000809191008260DC
:101B80008093910080919100816080939100809179
:101B900090008160809390008091C1008460809368
:101BA000C1008091C10082608093C1008091C1001A
:101BB00081608093C1008091C30081608093C300E5
:101BC0008091C00082608093C0008091C2008160DB
:101BD0008093C20080917A00846080937A00809123
:101BE0007A00826080937A0080917A00816080938D
:101BF0007A0080917A00806880937A001092AB011D
:101C00001092AD0110929F018091D7008160809366
:101C1000D70080EA8093D80089B5806189BD89B5F5
:101C2000826089BD09B400FEFDCF0E94430A809105
:101C3000D8008F7C80618093D8008091E000807F05
:101C40008093E0008091E1008E7E8093E1008DE042
:101C50008093E200559A209AEEEFFFE785919491E8
:101C60008B3F9C4D19F481E08093AC0180E00E9491
:101C70001B0A81E00E941B0A88E00E941B0A82E086
:101C80000E941B0A83E00E941B0A89E00E941B0A33
:101C900082EF92E090932401809323018091A5012B
:101CA00080618093A5018091A40180618093A4014B
:101CB00083B18093A00180916B00806180936B0061
:101CC000809168008160809368008DE392E090933A
:101CD0002201809321018091A50180628093A5015A
:101CE0008091A40180628093A40183B18093A001BC
:101CF00080916B00806280936B00809168008160AE
:101D00008093680080E1809381001092800085E0DC
:101D10008093A3018FEF9FEF9093A2018093A10185
:101D2000909387008093860085E18093810000E096
:101D300010E080912F02823030F4F89484E292E037
:101D40000E946E0801C0F89480912B0290912C02A1
:101D5000A0912D02B0912E027894F89410922B024B
:101D600010922C0210922D0210922E0278941816C6
:101D700019069CF4EC01D595C795D595C795E12C2E
:101D8000F12CEC16FD0659F067ED8CE092E00E9414
:101D90003D078FEFE81AF80AF4CF009751F48091CD
:101DA00023028230F0F4F89488E192E00E946E08F9
:101DB00019C09C0197FF02C02D5F3F4FE901D595E7
:101DC000C795D595C795E12CF12CEC16FD0639F396
:101DD00068ED8CE092E00E943D0721E0E21AF108F4
:101DE000F4CFF89480911F0290912002A0912102DB
:101DF000B09122027894F89410921F02109220025F
:101E000010922102109222027894181619069CF45E
:101E1000EC01D595C795D595C795E12CF12CEC161D
:101E2000FD0659F06AED8CE092E00E943D078FEFCD
:101E3000E81AF80AF4CF009771F48091A801909104
:101E4000A90182309105F9F083309105F1F00197F5
:101E500009F562EC1BC09C0197FF02C02D5F3F4F4C
:101E6000E901D595C795D595C795E12CF12CEC16D0
:101E7000FD0619F369ED8CE092E00E943D0721E038
:101E8000E21AF108F4CF63EC01C064EC8CE092E05C
:101E90000E943D071092A9011092A8018091A6010D
:101EA0009091A7018230910539F08330910531F08E
:101EB000019749F465EC03C066EC01C067EC8CE067
:101EC00092E00E943D071092A7011092A601011511
:101ED000110509F42ECF0E9400002BCFEE0FFF1F3B
:101EE0000590F491E02D099481E090E0F8940C9431
:061EF000790FF894FFCF0A
:101EF600270227022702270227022702AC01AC018C
:101F0600AC01AC01AC0100C18081000000FFFFFF05
:101F1600FF2702270200E100000000000000000089
:101F260000AD0189044904D401000000004F09CC2A
:101F360009E2096509B20970098E09000000003D31
:081F460007F701240223020049
:1070000055C000006EC000006CC000006AC00000E7
:1070100068C0000066C0000064C0000062C00000DC
:1070200060C000005EC00000FCC400005AC0000048
:1070300058C0000056C0000054C0000052C00000FC
:1070400050C000005DC000004CC000004AC00000FD
:1070500048C0000046C0000044C0000042C000001C
:1070600040C000003EC000003CC000003AC000002C
:1070700038C0000036C0000034C0000032C000003C
:1070800030C000002EC000002CC000002AC000004C
:1070900028C0000026C0000024C0000022C000005C
:1070A00020C000001EC000001CC0000011241FBE34
:1070B000CFEFDAE0DEBFCDBF11E0A0E0B1E0E6E463
:1070C000FFE702C005900D92A43BB107D9F711E08C
:1070D000A4EBB1E001C01D92AD3CB107E1F74FD385
:1070E00030C78ECFF89410926F001092810081E02B
:1070F00085BF15BE47985D9A289A0C9400000895A4
:107100001F920F920FB60F9211242F938F939F937C
:10711000EF93FF9310928500109284008091B40148
:107120009091B501009741F001979093B50180933C
:10713000B401892B09F45D9A8091B6019091B70151
:10714000009741F001979093B7018093B601892B86
:1071500009F4289A8091BA019091BB01019690930D
:10716000BB018093BA01E0E0F0E0859194918F5FDC
:107170009F4F49F08091B8019091B9010196909389
:10718000B9018093B801FF91EF919F918F912F9159
:107190000F900FBE0F901F90189584E08093E90028
:1071A0000DC08091E8008B778093E80003C08EB318
:1071B000882351F08091E80082FFF9CF8091E800A8
:1071C00085FFEFCF8091F1000895982F83E08093A1
:1071D000E9008091E80085FD0DC08091E8008E7780
:1071E0008093E80003C08EB3882369F08091E800A3
:1071F00080FFF9CF9093F1005D9884E690E0909342
:10720000B5018093B40108954F925F926F927F927F
:107210008F929F92AF92BF92CF92DF92EF92FF92A6
:107220000F931F93CF93DF9384E08093E9008091C5
:10723000E80082FF57C2289884E690E09093B70157
:107240008093B601AADF182F853481F48CE49DE188
:107250009093B9018093B80107B600FCFDCFF9996E
:10726000FECF81E180935700E89503C0843519F47F
:1072700094DF8DE00DC28C34E1F38035D1F3843797
:1072800021F484E4A2DF80E003C2813611F489E5B1
:10729000FFC18134B1F481DF182F7FDF90E0880FC8
:1072A000991FAA2797FDA095BA2F312F330F20E001
:1072B000442737FD4095542F822B932BA42BB52BBD
:1072C000B8C1803711F483E5E3C1833549F4C0E0E8
:1072D000D1E089917ADF21E0C730D207D1F7D9C157
:1072E000863521F481E371DF80E3D2C1833731F445
:1072F00087E86BDF85E969DF8EE1CAC18536B9F4BD
:10730000E0E0F0E093E085E090935700E89507B661
:1073100000FCFDCF80935700E89507B600FCFDCF39
:10732000E058FF4FA0E7E030FA0771F7A2CF8237AD
:1073300039F4E1E0F0E089E0809357008491A8C13E
:10734000863439F4E0E0F0E089E0809357008491DE
:107350009FC18E3439F4E3E0F0E089E08093570078
:10736000849196C1813539F4E2E0F0E089E08093C0
:10737000570084918DC1823631F489E526DF80E0A3
:1073800024DF80E885C1823419F0873609F0E5C032
:107390001092B9011092B80100DF082FFEDEF82E1E
:1073A000FCDE682E8554823008F071C1902F80E099
:1073B000CF2DD0E0C82BD92B10926F00173609F0D3
:1073C0004BC081E180935700E895DD24CC24C39421
:1073D0003FC0E090BD01F090BE010091BF0110914F
:1073E000C001B6E46B16D9F4ED2DF0E0EE29FF29CB
:1073F000E4918E2FEADEDD2081F082E090E0A0E0D3
:10740000B0E0E80EF91E0A1F1B1FE092BD01F092CA
:10741000BE010093BF011093C001DC2418C0D80145
:10742000C701B695A7959795879575D5CEDE82E06D
:1074300090E0A0E0B0E0E80EF91E0A1F1B1FE092EA
:10744000BD01F092BE010093BF011093C0012197CE
:10745000209709F0BECF7DC08090BD019090BE0105
:10746000A090BF01B090C00196E4691609F05DC01C
:1074700083E0F40180935700E89507B600FCFDCF48
:1074800054C0F6E46F1661F5772031F1E090BD014C
:10749000F090BE010091BF011091C0017EDED82E98
:1074A000CC24852D90E08C299D29F7010C01409278
:1074B0005700E895112482E090E0A0E0B0E0E80EEB
:1074C000F91E0A1F1B1FE092BD01F092BE0100933E
:1074D000BF011093C00102C060DE582E742423C087
:1074E000E090BD01F090BE010091BF011091C0017C
:1074F00016950795F794E79450DE682FC70113D5CA
:107500008091BD019091BE01A091BF01B091C001D9
:107510000296A11DB11D8093BD019093BE01A09361
:10752000BF01B093C001219704C05524772444249F
:107530004394209709F0A5CF96E4691641F485E0BD
:10754000F40180935700E89507B600FCFDCF8DE06D
:107550003CDE82E080936F009CC0833471F4009124
:10756000BD011091BE0119DE90E021E0F8010C018F
:1075700020935700E89511247CCE833619F5E090CE
:10758000BD01F090BE010091BF011091C00105DE68
:10759000F701E16090E021E00C0120935700E895AD
:1075A000112482E090E0A0E0B0E0E80EF91E0A1F8E
:1075B0001B1FE092BD01F092BE010093BF0110932A
:1075C000C00157CE8D3661F4E091BD01F091BE014E
:1075D00085E080935700E89507B600FCFDCF49CEC3
:1075E000823551F4E091BD01F091BE0105911491F5
:1075F000812FEBDD802F4CC0843421F5E090BD015C
:10760000F090BE010091BF011091C0011695079541
:10761000F794E794C2DD682FC70185D48091BD013E
:107620009091BE01A091BF01B091C0010296A11D31
:10763000B11D8093BD019093BE01A093BF01B09393
:10764000C00117CE843609F5E090BD01F090BE016F
:107650000091BF011091C001D801C701B695A7954F
:107660009795879558D4B1DD82E090E0A0E0B0E036
:10767000E80EF91E0A1F1B1FE092BD01F092BE0129
:107680000093BF011093C00104C08B3111F08FE350
:107690009CDD83E08093E9009091E8008091E80010
:1076A0008E778093E80095FF04C010C08EB38823C6
:1076B000C9F08091E80080FFF9CF8091E8008E77D3
:1076C0008093E80003C08EB3882361F08091E800C6
:1076D00080FFF9CF84E08093E9008091E8008B7708
:1076E0008093E800DF91CF911F910F91FF90EF9071
:1076F000DF90CF90BF90AF909F908F907F906F90D2
:107700005F904F9008959091C501892F8F778132B6
:1077100049F58091C6018032A1F0813219F5913A84
:1077200009F58091E800877F8093E8008CE091E084
:1077300067E070E027D28091E8008B778093E800C3
:107740000895913279F48091E800877F8093E80072
:107750008CE091E067E070E079D28091E8008E776C
:107760008093E800089582E061EC42E0D1D083E0AC
:1077700061E842E1CDD084E060E842E1C9C01F93F6
:10778000209100081092000844B714BE88E10FB69B
:10779000F89480936000109260000FBE80E8E0E0F3
:1077A000F0E00FB6F89480936100E09361000FBEA3
:1077B00031E035BF92E095BF3F9A209A559A809369
:1077C00061001092610047985D9A289A1092890092
:1077D0008AEF8093880090936F0083E0809381000C
:1077E000859194918F5F9F4F11F03093BC01942F3E
:1077F00041FF19C0809109012817A9F08093000862
:10780000789480911301882339F08091BA01909186
:10781000BB018F5E9240C8F3F8941092000881E09B
:10782000809313010CC090FF04C08091BC01882399
:1078300051F493FF09C080910901281729F0809124
:10784000BC01882309F04EDCD4D078941092B901A1
:107850001092B8011EEF20C0D7DC4BD38091B80145
:107860009091B90181549F4110F0109213018091C1
:10787000C1019091C20101969093C2018093C10110
:10788000292F97FF03C0512F591B252F220F28178F
:1078900010F4479801C0479A809113018823E1F6BC
:1078A0008091E00081608093E0001CDC80E090E04B
:1078B0001F910895FA01923049F0933061F09130B0
:1078C000F9F484E191E022E130E01EC086E291E02B
:1078D0002EE330E019C0882329F484E691E024E007
:1078E00030E012C0813029F488E691E02EE130E0EA
:1078F0000BC0823029F488E891E02AE230E004C02D
:1079000080E090E020E030E091838083C901089519
:107910008093E9008091EB0081608093EB001092EE
:10792000ED006093EC004093ED008091EE00881F25
:107930008827881F08958091C50188238CF403C08F
:107940008EB38823B1F08091E80082FFF9CF809157
:10795000E8008B778093E80008958EB3882349F080
:107960008091E80080FFF9CF8091E8008E778093C6
:10797000E8000895EF92FF920F931F9345D04CD0EB
:1079800008ED10E0F80180818F7780838081806826
:10799000808380818F7D808319BC1EBA1092C301C1
:1079A00080EEE82EF12CF70180818B7F8083F80137
:1079B00080818160808380E060E042E0A9DFE1EEC9
:1079C000F0E080818E7F8083E2EEF0E08081816054
:1079D0008083808188608083F70180818E7F8083AF
:1079E000F8018081806180831F910F91FF90EF905B
:1079F0000895E7EDF0E08081816080838AE482BFB2
:107A000081E08093C401B6CFE8EDF0E080818E7F05
:107A100080831092E20008951092DA001092E10043
:107A200008951F920F920FB60F9211242F933F9338
:107A30004F935F936F937F938F939F93AF93BF9376
:107A4000EF93FF938091DA0080FF1BC08091D800F4
:107A500080FF17C08091DA008E7F8093DA008091DA
:107A6000D90080FF0BC080E189BD82E189BD09B4E6
:107A700000FEFDCF81E08EBB3BD203C019BC1EBA15
:107A800037D28091E10080FF17C08091E20080FF33
:107A900013C08091E2008E7F8093E2008091E2002B
:107AA00080618093E2008091D80080628093D8004A
:107AB00019BC85E08EBB1CD28091E10084FF2CC0F4
:107AC0008091E20084FF28C080E189BD82E189BD08
:107AD00009B400FEFDCF8091D8008F7D8093D8003F
:107AE0008091E1008F7E8093E1008091E2008F7EA3
:107AF0008093E2008091E20081608093E2008091B7
:107B0000C301882331F48091E30087FD02C081E046
:107B100001C084E08EBBECD18091E10083FF21C0E5
:107B20008091E20083FF1DC08091E100877F8093F8
:107B3000E10082E08EBB1092C3018091E1008E7F54
:107B40008093E1008091E2008E7F8093E20080913B
:107B5000E20080618093E20080E060E042E0D8DEF5
:107B6000C7D1FF91EF91BF91AF919F918F917F917D
:107B70006F915F914F913F912F910F900FBE0F909A
:107B80001F9018959C014091CB015091CC01461754
:107B9000570718F4F90190E044C06115710511F020
:107BA000AB01F8CF8091E8008E778093E80040E049
:107BB00050E0F0CF8EB3882309F444C0853009F437
:107BC00043C08091E80083FF02C081E00895809166
:107BD000E80082FD31C08091E80080FF22C08091E2
:107BE000F3009091F200782F60E0292F30E0262BEF
:107BF000372B07C081918093F100415050402F5F97
:107C00003F4F4115510519F02830310598F390E0A8
:107C10002830310509F491E08091E8008E77809357
:107C2000E8004115510531F6992321F605C08EB3C0
:107C3000882341F0853041F08091E80082FFF7CF42
:107C400080E0089582E0089583E008959C01611525
:107C5000710529F48091E8008B778093E800F901A1
:107C600026C08EB3882391F1853091F18091E80090
:107C700083FF02C081E008958091E80082FFF1CF88
:107C800006C08091F10081936150704059F02091BD
:107C9000F3008091F200322F20E090E0822B932BB2
:107CA000892B79F78091E8008B778093E800611544
:107CB0007105B9F605C08EB3882341F0853041F0D7
:107CC0008091E80080FFF7CF80E0089582E008957A
:107CD00083E008950F931F93DF93CF9300D0CDB728
:107CE000DEB7E5ECF1E08091F100819381E0ED3CBD
:107CF000F807C9F708DD8091E80083FFE4C08091B0
:107D0000C5019091C601953009F46DC0963040F4DC
:107D1000913081F1913070F0933009F0D4C02AC0D5
:107D2000983009F4A3C0993009F4B2C0963009F034
:107D3000CAC07CC0803809F4C6C0823809F0C3C00C
:107D40008091C90187708093E9008091EB001092C7
:107D5000E9002091E800277F2093E80090E025E0EB
:107D6000969587952A95E1F781708093F10010929E
:107D7000F10087C0882319F0823009F0A4C08F7108
:107D8000823009F0A0C08091C701882331F520918D
:107D9000C901277009F497C02093E9008091EB0096
:107DA00080FF1BC0933021F48091EB00806213C0F0
:107DB0008091EB0080618093EB0081E090E002C055
:107DC000880F991F2A95E2F78093EA001092EA0043
:107DD0008091EB0088608093EB001092E900809125
:107DE000E800877F51C0882309F06DC01091C7015A
:107DF0001F770FB7F8948091E800877F8093E800A1
:107E00009ADD8091E80080FFFCCF8091E3008078CC
:107E1000812B8093E30080688093E300112311F4A9
:107E200082E001C083E08EBB0FBF4DC0805882301E
:107E300008F049C08091C7019091C8016091C901C3
:107E4000AE014F5F5F4F36DDBC01009709F43BC0C8
:107E50008091E800877F8093E80089819A8192DE93
:107E60008091E8008B778093E8002DC0803859F529
:107E70008091E800877F8093E8008091C301809320
:107E8000F1008091E8008E778093E80054DD1BC0FC
:107E90008823C9F49091C7019230A8F48091E8003A
:107EA000877F8093E8009093C30145DD8091C301F3
:107EB000882331F48091E30087FD02C081E001C096
:107EC00084E08EBB50DC8091E80083FF0AC0809183
:107ED000EB0080628093EB008091E800877F8093C5
:107EE000E8000F900F90CF91DF911F910F910895AF
:107EF00008951F938EB3882361F01091E9001092CA
:107F0000E9008091E80083FF01C0E4DE1770109360
:107F1000E9001F910895F999FECF92BD81BDF89AAD
:107F2000992780B50895262FF999FECF1FBA92BDE3
:107F300081BD20BD0FB6F894FA9AF99A0FBE01964A
:067F40000895F894FFCF44
:107F46004341544552494E41007700080000000065
:107F56000000080112011001020000084F1B0592E3
:107F660001000201000109023E00020100803209FF
:107F7600040000010202010005240010010424028D
:107F8600040524060001070582030800FF09040111
:107F960000020A000000070504021000010705831D
:107FA60002100001040309041E03500072006F0052
:107FB60020004D006900630072006F00200035004C
:107FC60056002000200000002A03530070006100C4
:107FD60072006B00460075006E00200045006C00C4
:107FE60065006300740072006F006E006900630034
:047FF6007300000014
:040000030000700089
:00000001FF
